{
  "fileName": "ImagoShouldReturnTrue.sol",
  "contractName": "ImagoShouldReturnTrue",
  "source": "pragma solidity >= 0.6.0;\n\nimport \"../Imago.sol\";\n\n\ncontract ImagoShouldReturnTrue {\n    Imago private _imago;\n\n    constructor(\n        string memory name,\n        string memory symbol,\n        uint totalSupply\n    ) public {\n        _imago = new Imago(name, symbol, totalSupply);\n    }\n\n    function transfer(address _recipient, uint _amount)\n        public\n        returns (bool)\n    {\n        bool result = _imago.transfer(_recipient, _amount);\n\n        require(result == true, \"Should return true on successful transfer.\");\n\n        return result;\n    }\n}\n",
  "sourcePath": "contracts/mocks/ImagoShouldReturnTrue.sol",
  "abi": [
    {
      "inputs": [
        {
          "internalType": "string",
          "name": "name",
          "type": "string"
        },
        {
          "internalType": "string",
          "name": "symbol",
          "type": "string"
        },
        {
          "internalType": "uint256",
          "name": "totalSupply",
          "type": "uint256"
        }
      ],
      "stateMutability": "nonpayable",
      "type": "constructor"
    },
    {
      "inputs": [
        {
          "internalType": "address",
          "name": "_recipient",
          "type": "address"
        },
        {
          "internalType": "uint256",
          "name": "_amount",
          "type": "uint256"
        }
      ],
      "name": "transfer",
      "outputs": [
        {
          "internalType": "bool",
          "name": "",
          "type": "bool"
        }
      ],
      "stateMutability": "nonpayable",
      "type": "function"
    }
  ],
  "bytecode": "0x608060405234801561001057600080fd5b50604051610dbc380380610dbc8339818101604052606081101561003357600080fd5b810190808051604051939291908464010000000082111561005357600080fd5b8382019150602082018581111561006957600080fd5b825186600182028301116401000000008211171561008657600080fd5b8083526020830192505050908051906020019080838360005b838110156100ba57808201518184015260208101905061009f565b50505050905090810190601f1680156100e75780820380516001836020036101000a031916815260200191505b506040526020018051604051939291908464010000000082111561010a57600080fd5b8382019150602082018581111561012057600080fd5b825186600182028301116401000000008211171561013d57600080fd5b8083526020830192505050908051906020019080838360005b83811015610171578082015181840152602081019050610156565b50505050905090810190601f16801561019e5780820380516001836020036101000a031916815260200191505b50604052602001805190602001909291905050508282826040516101c190610307565b808060200180602001848152602001838103835286818151815260200191508051906020019080838360005b838110156102085780820151818401526020810190506101ed565b50505050905090810190601f1680156102355780820380516001836020036101000a031916815260200191505b50838103825285818151815260200191508051906020019080838360005b8381101561026e578082015181840152602081019050610253565b50505050905090810190601f16801561029b5780820380516001836020036101000a031916815260200191505b5095505050505050604051809103906000f0801580156102bf573d6000803e3d6000fd5b506000806101000a81548173ffffffffffffffffffffffffffffffffffffffff021916908373ffffffffffffffffffffffffffffffffffffffff160217905550505050610314565b6108548061056883390190565b610245806103236000396000f3fe608060405234801561001057600080fd5b506004361061002b5760003560e01c8063a9059cbb14610030575b600080fd5b61007c6004803603604081101561004657600080fd5b81019080803573ffffffffffffffffffffffffffffffffffffffff16906020019092919080359060200190929190505050610096565b604051808215151515815260200191505060405180910390f35b6000806000809054906101000a900473ffffffffffffffffffffffffffffffffffffffff1673ffffffffffffffffffffffffffffffffffffffff1663a9059cbb85856040518363ffffffff1660e01b8152600401808373ffffffffffffffffffffffffffffffffffffffff1673ffffffffffffffffffffffffffffffffffffffff16815260200182815260200192505050602060405180830381600087803b15801561014157600080fd5b505af1158015610155573d6000803e3d6000fd5b505050506040513d602081101561016b57600080fd5b8101908080519060200190929190505050905060011515811515146101db576040517f08c379a000000000000000000000000000000000000000000000000000000000815260040180806020018281038252602a8152602001806101e6602a913960400191505060405180910390fd5b809150509291505056fe53686f756c642072657475726e2074727565206f6e207375636365737366756c207472616e736665722ea2646970667358221220691cf84120c2b9b702d39403bf0013c684fdb798f97ab659c8e22a3b8278e6f164736f6c63430006040033608060405234801561001057600080fd5b506040516108543803806108548339818101604052606081101561003357600080fd5b810190808051604051939291908464010000000082111561005357600080fd5b8382019150602082018581111561006957600080fd5b825186600182028301116401000000008211171561008657600080fd5b8083526020830192505050908051906020019080838360005b838110156100ba57808201518184015260208101905061009f565b50505050905090810190601f1680156100e75780820380516001836020036101000a031916815260200191505b506040526020018051604051939291908464010000000082111561010a57600080fd5b8382019150602082018581111561012057600080fd5b825186600182028301116401000000008211171561013d57600080fd5b8083526020830192505050908051906020019080838360005b83811015610171578082015181840152602081019050610156565b50505050905090810190601f16801561019e5780820380516001836020036101000a031916815260200191505b506040526020018051906020019092919050505033600360006101000a81548173ffffffffffffffffffffffffffffffffffffffff021916908373ffffffffffffffffffffffffffffffffffffffff1602179055508260009080519060200190610209929190610274565b508160019080519060200190610220929190610274565b508060028190555080600460003373ffffffffffffffffffffffffffffffffffffffff1673ffffffffffffffffffffffffffffffffffffffff16815260200190815260200160002081905550505050610319565b828054600181600116156101000203166002900490600052602060002090601f016020900481019282601f106102b557805160ff19168380011785556102e3565b828001600101855582156102e3579182015b828111156102e25782518255916020019190600101906102c7565b5b5090506102f091906102f4565b5090565b61031691905b808211156103125760008160009055506001016102fa565b5090565b90565b61052c806103286000396000f3fe608060405234801561001057600080fd5b50600436106100625760003560e01c806306fdde031461006757806318160ddd146100ea57806370a08231146101085780638da5cb5b1461016057806395d89b41146101aa578063a9059cbb1461022d575b600080fd5b61006f610293565b6040518080602001828103825283818151815260200191508051906020019080838360005b838110156100af578082015181840152602081019050610094565b50505050905090810190601f1680156100dc5780820380516001836020036101000a031916815260200191505b509250505060405180910390f35b6100f2610335565b6040518082815260200191505060405180910390f35b61014a6004803603602081101561011e57600080fd5b81019080803573ffffffffffffffffffffffffffffffffffffffff16906020019092919050505061033f565b6040518082815260200191505060405180910390f35b610168610388565b604051808273ffffffffffffffffffffffffffffffffffffffff1673ffffffffffffffffffffffffffffffffffffffff16815260200191505060405180910390f35b6101b26103ae565b6040518080602001828103825283818151815260200191508051906020019080838360005b838110156101f25780820151818401526020810190506101d7565b50505050905090810190601f16801561021f5780820380516001836020036101000a031916815260200191505b509250505060405180910390f35b6102796004803603604081101561024357600080fd5b81019080803573ffffffffffffffffffffffffffffffffffffffff16906020019092919080359060200190929190505050610450565b604051808215151515815260200191505060405180910390f35b606060008054600181600116156101000203166002900480601f01602080910402602001604051908101604052809291908181526020018280546001816001161561010002031660029004801561032b5780601f106103005761010080835404028352916020019161032b565b820191906000526020600020905b81548152906001019060200180831161030e57829003601f168201915b5050505050905090565b6000600254905090565b6000600460008373ffffffffffffffffffffffffffffffffffffffff1673ffffffffffffffffffffffffffffffffffffffff168152602001908152602001600020549050919050565b600360009054906101000a900473ffffffffffffffffffffffffffffffffffffffff1681565b606060018054600181600116156101000203166002900480601f0160208091040260200160405190810160405280929190818152602001828054600181600116156101000203166002900480156104465780601f1061041b57610100808354040283529160200191610446565b820191906000526020600020905b81548152906001019060200180831161042957829003601f168201915b5050505050905090565b600081600460003373ffffffffffffffffffffffffffffffffffffffff1673ffffffffffffffffffffffffffffffffffffffff1681526020019081526020016000206000828254039250508190555081600460008573ffffffffffffffffffffffffffffffffffffffff1673ffffffffffffffffffffffffffffffffffffffff16815260200190815260200160002060008282540192505081905550600190509291505056fea264697066735822122003554bc941b9e246fcb573cb63f9cb877f7535ce22210b5e1660418836e0993964736f6c63430006040033",
  "compiler": {
    "name": "solc",
    "version": "0.6.4+commit.1dca32f3.Emscripten.clang",
    "optimizer": {
      "enabled": false,
      "runs": 200
    },
    "evmVersion": "petersburg"
  }
}